:02000004080AE8
:1000000000000A08580D0A08000006000600050155
:080010000402FD0800000000DD
:04001800840B0A0843
:10001C0009480A4908B5884205D0094A824202D0EB
:10002C00121A00F0FFFC0748074A0021121A00F0D0
:10003C0007FD064808BD00BF00000020C40C0A08DC
:10004C006C0000206C000020B5050020B5050020D8
:10005C0070B500F037FA0025054E064CA41BA40819
:10006C00A54200D170BD56F8043B98470135F7E71F
:10007C00A40C0A08C00C0A0800F011B808B500F06E
:10008C000FF8BDE8084000F0D5B900F017B90078BA
:10009C00B0FA80F040097047012303707047704735
:1000AC007047000008B5024B1B685B68019308BDE4
:1000BC009C01060808B5024B1B685B69019308BDDF
:1000CC009C01060808B5024B1B689B69019308BD8F
:1000DC00C401060808B5024B1B685B6A019308BD96
:1000EC00C401060808B5024B1B689B6A019308BD46
:1000FC00C401060808B5024B1B68DB6A019308BDF6
:10010C00C401060808B5024B1B681B6B019308BDA4
:10011C00C401060808B5024B1B685B6B019308BD54
:10012C00C401060808B5024B1B681B6C019308BD83
:10013C00C401060808B5024B1B681B68019308BD77
:10014C00D801060808B5024B1B681B69019308BD52
:10015C00D801060808B5024B1B685B69019308BD02
:10016C00D801060808B5024B1B689B69019308BDB2
:10017C00D801060808B5024B1B68DB69019308BD62
:10018C00D801060808B5024B1B681B6A019308BD11
:10019C00D801060808B5024B1B689B6C019308BD7F
:1001AC00C001060808B5024B1B685B68019308BDCB
:1001BC00A401060808B5034B1B68D3F890300193D3
:1001CC0008BD0000A401060808B5034B1B68D3F852
:1001DC009C30019308BD0000A401060808B5024B31
:1001EC001B685B68019308BDC801060808B5024B83
:1001FC001B689B68019308BDC801060808B5024B33
:10020C001B68DB68019308BDC801060808B5024BE2
:10021C001B681B69019308BDC801060808B5024B91
:10022C001B685B69019308BDC801060808B5024B41
:10023C001B689B69019308BDC801060808B5024BF1
:10024C001B68DB69019308BDC801060808B5024BA1
:10025C001B681B6A019308BDC801060808B5024B50
:10026C001B681B6B019308BDC801060808B5024B3F
:10027C001B685B6B019308BDC801060808B5024BEF
:10028C001B681B6C019308BDC801060808B5024B1E
:10029C001B685B6C019308BDC801060808B5024BCE
:1002AC001B68DB6B019308BDCC01060808B5024B3B
:1002BC001B681B68019308BDA001060808B5024B1A
:1002CC001B685B68019308BDA001060808B5024BCA
:1002DC001B685B6C019308BDA0010608022200207C
:1002EC00044B1A60044B054A1860988098719A6008
:1002FC00FFF758BF780000206C0000200000FFFFC3
:10030C00F8B506460D4600248F18BD420CD0336854
:10031C0030469B6815F8011B9847031E01DB1C44F3
:10032C00F3E7002C08BF1C462046F8BD70B5054607
:10033C000C46084649B100F0AFFB2B68024621463B
:10034C002846BDE87040DB68184770BD03689B68A1
:10035C0018470023012A98BF0A2230B58BB00C46EF
:10036C008DF8243009A92546B4FBF2F404FB125392
:10037C00DBB2092B94BF30333733DBB2AA4201F81E
:10038C00013DF0D9FFF7D2FF0BB030BD0023406820
:10039C001A461946FFF742BF014B024A1A607047D2
:1003AC007C000020980B0A08024B1A68024B1A605A
:1003BC00704700BF00000020800000200022014B8D
:1003CC009A60704784000020014B1860704700BF92
:1003DC000400002008B5134B43B100F071F9036819
:1003EC001B699847002801DDAFF300800E4B43B129
:1003FC0000F016FA03681B699847002801DDAFF37B
:10040C0000800A4B0BB1AFF30080094B43B100F0F5
:10041C0091F903681B699847002801DDAFF3008050
:10042C0008BD00BF0000000000000000000000003C
:10043C000000000008B5FFF7CDFFFFF73BFE014BB6
:10044C00186008BD000500200548064A08B5121AB8
:10045C00054900F0E7FA054B054A1A6008BD00BFD4
:10046C000040024004400240C00C0A080040024018
:10047C001E1C279A002307B51A466FF077010093CC
:10048C00FFF7A2FE03B05DF804FB000007B543883C
:10049C000A2B08D0502B0BD1094B1B684BB103B066
:1004AC005DF804EB1847FFF7E5FF03B05DF804FBBC
:1004BC0000231A466FF077010093FFF785FEF4E7EF
:1004CC0098000020002110B51148FFF7FFFE114BDA
:1004DC001A68114B9A420CBF012200220F4B1A7062
:1004EC0001D0FFF7B1FFFFF7DDFD044600F0B0FAD5
:1004FC000B4B13B12046AFF3008000210848FFF7E7
:10050C00CDFEBDE8104000210648FFF753BE00BFEA
:10051C00D5030A08004002401E1C279A94000020B4
:10052C000000000099040A08704710B50446182111
:10053C0000F070FA204610BDF8B50E46002400F10C
:10054C000807051D17F8011D0A223046FFF701FFA9
:10055C00AF42044401D12046F8BD002CF2D02E212C
:10056C003046FFF7F3FE0444ECE7000010B50446F8
:10057C00044B1122002140F8043B00F061FA2046A4
:10058C0010BD00BFC00B0A080346074A10B543F85C
:10059C00042B01F1100251F8044B914243F8044B27
:1005AC00F9D10A781A7010BDC00B0A08024AC0E9CA
:1005BC000021042202757047C00B0A0810B59DF883
:1005CC00084044EA0324042344EA024444EA016454
:1005DC004460037510BD000037B5044D05609DF8EF
:1005EC0018500095FFF7EAFF03B030BDC00B0A08A6
:1005FC00417470477047704708B50021007CFFF7C5
:10060C00B1FD40EAE07008BD08B50121007CFFF7A0
:10061C00A9FD40EAE07008BD08B5007CFFF79AFD23
:10062C0020EAE07008BD08B5007CFFF78BFD20EADE
:10063C00E07008BD38B50446007C0D46FFF78AFD16
:10064C00002801DC607C28B12946207CFFF792FD54
:10065C0020EAE07038BD007CFFF794BD10B504466D
:10066C00142100F0D7F9204610BD704710B54FF497
:10067C007A73044608460021C4E90113044B207424
:10068C002360012311466374FFF754FD204610BD0F
:10069C00D40B0A0810B504461422002100F0D0F93E
:1006AC00054B20466360054BE36040F20113238148
:1006BC008123238210BD00BFCC000020CD0100207F
:1006CC0030B50E4D87B001A8FFF7E4FF2978BFF3D2
:1006DC005B8F11F001040ED12846FFF7D8FC50B106
:1006EC00214601AA0648FFF7C1FF2846FFF7D4FCB4
:1006FC00044800F091F9024807B030BD9C0000207E
:10070C00A400002001060A0810B50446142200219A
:10071C0000F096F9054B20466360054BE36040F210
:10072C00011323818123238210BD00BF4E020020C0
:10073C004F03002010B50E4C86B001A8FFF7E4FF64
:10074C002378BFF35B8FDB070ED42046FFF79FFCAB
:10075C0050B1012101AA0748FFF788FF2046FFF797
:10076C009BFC054800F058F9024806B010BD00BFCC
:10077C00A0000020B800002077060A0870474174DA
:10078C007047704708B5007CFFF7CCFC20EAE0709E
:10079C0008BD08B5007CFFF7A5FC20EAE07008BD99
:1007AC0008B5007CFFF7AEFC40EAE07008BD08B568
:1007BC00007CFFF79FFC40EAE07008BD007CFFF76F
:1007CC00A9BC70B5467C04460D462EB12946207C4A
:1007DC00BDE87040FFF77EBC007CFFF7A3FC00284F
:1007EC00F4DC304670BD10B50446142100F012F94B
:1007FC00204610BD4FF0000C10B5044608461146BB
:10080C004FF47A72C4E901C2044A207422600122B6
:10081C0062741A46FFF756FC204610BD040C0A08F9
:10082C0038B50C4D2978BFF35B8F11F001040FD153
:10083C002846FFF72CFC58B12146074B074A0848BD
:10084C00FFF7D8FF2846FFF727FC064800F0E4F82E
:10085C00034838BDD003002058040020D4030020E6
:10086C00DC0400208F070A08002240681146FFF7BD
:10087C00CDBCF0B5154689B011220E4604460021B8
:10088C0003A800F0DDF8284600F006F9002781B235
:10089C0073682846009703AAFFF77CFC30B13946F1
:1008AC002046FFF783FE204609B0F0BD204603A981
:1008BC00FFF76AFEF7E7002240681146FFF7C6BC57
:1008CC00002240681146FFF7D1BC00224068FFF7B8
:1008DC00C5BC0022406881F00101FFF7AFBC0023CA
:1008EC0040681A461946FFF7A1BC00224068114621
:1008FC00FFF77CBC002202214068FFF77FBC00237D
:10090C0040681A46FFF76ABC0422024B5A60024A3E
:10091C001A607047F0040020340C0A080023406869
:10092C001A46FFF75BBC002202214068FFF766BC49
:10093C00002240681146FFF759BC0022406811465E
:10094C00FFF764BC002340681A461946FFF766BCE3
:10095C00002340681A461946FFF768BC002140681E
:10096C00FFF78CBC00214068FFF790BC0022406868
:10097C0081F00101FFF762BC00224068FFF76EBCFA
:10098C00002240681146FFF771BC002240681146F6
:10099C00FFF75CBC70B515468EB0044608A8FFF78F
:1009AC00E5FD1122002103A800F04AF80026284694
:1009BC0000F072F80A4B009681B25B68284603AAD5
:1009CC00FFF7E8FB30B131462046FFF7EFFD20463C
:1009DC000EB070BD204603A9FFF7D6FDF7E700BFA8
:1009EC00F0040020024B034A1A6000225A60704740
:1009FC00F8040020700C0A08002307B51A461946A3
:100A0C0000930348FFF7E8FD03B05DF804FB00BF5B
:100A1C0004050020FFF739BB002301461A4618468F
:100A2C0000F042B80A44914200F1FF3300D1704704
:100A3C0010B511F8014B914203F8014FF9D110BDDB
:100A4C0003460244934200D1704703F8011BF9E7B7
:100A5C0038B50D4B04461D68AB6B7BB91820FFF7FE
:100A6C0025FC0A4A0A4BA863C0E90023094B012262
:100A7C0083600B2383810023C0E904230022AB6B2A
:100A8C001C615A6138BD00BF040000200E33CDAB91
:100A9C0034126DE6ECDE0500034613F8012B002A38
:100AAC00FBD1181A013870472DE9F843DFF8BC80E8
:100ABC000646D8F800001F460D46914600F058F83F
:100ACC00264B1C6834B9264C1C60264B13B11B6892
:100ADC00C4F8883063681F2B07DDD8F8000000F0DD
:100AEC0049F84FF0FF30BDE8F8835EB3D4F88800C6
:100AFC0088B91D4B23B9D8F8000000F03AF8F0E79C
:100B0C004FF48470FFF7D2FB0028F4D00023C0E927
:100B1C004033C4F8880001226368022E40F8239009
:100B2C0002FA03F200EB8301D0F8003143EA02032E
:100B3C00C0F80031C1F8807002BFD0F804311A43FC
:100B4C00C0F804216368D8F800005A1C02336260B4
:100B5C0044F8235000F00EF80020C4E7A80500204C
:100B6C001C05002000000000B9020A0868000020E3
:100B7C0070477047704700001D000A085D000A08A6
:100B8C0085000A0889000A080000000061707000E6
:100B9C0025592D256D2D25645425483A254D3A258A
:100BAC0053257A0061736374696D65000000000061
:100BBC000000000045050A0835050A0837050A0833
:100BCC00000000000000000003060A0869060A087D
:100BDC0041060A080D030A0833060A0805060A0826
:100BEC0015060A0863060A0825060A08FD050A0800
:100BFC00000000000000000089070A08F3070A083B
:100C0C00CF070A080D030A089F070A08BB070A0842
:100C1C00AD070A08C9070A088B070A0891070A08D2
:100C2C0000000000000000000B090A0801090A0876
:100C3C00F7080A0875080A0899030A08EB080A0855
:100C4C0069090A0871090A08DF080A08D7080A089E
:100C5C00CD080A08C3080A087F080A08000000002B
:100C6C000000000029090A0833090A083D090A088E
:100C7C0047090A0851090A085D090A0869090A089E
:100C8C0071090A0879090A0885090A088D090A08F0
:100C9C0097090A08A1090A08E9020A08A5030A0823
:100CAC00B5030A08C9030A0815090A08F1090A0854
:040CBC00050A0A0813
:040CC0000000000030
:100CC400B00B0A080800002000000000000000002B
:100CD4000000000000000000000000000000000010
:100CE4000000000000000000000000000000000000
:100CF40000000000000000000000000000000000F0
:100D040000000000000000000000000000000000DF
:100D140000000000000000000000000000000000CF
:0C0D24000000000000000000AD050020F1
:100D3000FFFFFFFF00000102030405060708090A80
:100D40000B0C0D0E0F101112131415161718191A7B
:080D50001B1C1D1E1F202800C2
:040D58007856341283
:04000005080A001CC9
:00000001FF
